{
  "_format": "hh-sol-artifact-1",
  "contractName": "FHEAMM",
  "sourceName": "contracts/FHEAMM.sol",
  "abi": [
    {
      "inputs": [],
      "stateMutability": "nonpayable",
      "type": "constructor"
    },
    {
      "inputs": [
        {
          "internalType": "address",
          "name": "owner",
          "type": "address"
        }
      ],
      "name": "OwnableInvalidOwner",
      "type": "error"
    },
    {
      "inputs": [
        {
          "internalType": "address",
          "name": "account",
          "type": "address"
        }
      ],
      "name": "OwnableUnauthorizedAccount",
      "type": "error"
    },
    {
      "inputs": [],
      "name": "ZamaProtocolUnsupported",
      "type": "error"
    },
    {
      "anonymous": false,
      "inputs": [
        {
          "indexed": true,
          "internalType": "address",
          "name": "previousOwner",
          "type": "address"
        },
        {
          "indexed": true,
          "internalType": "address",
          "name": "newOwner",
          "type": "address"
        }
      ],
      "name": "OwnershipTransferred",
      "type": "event"
    },
    {
      "anonymous": false,
      "inputs": [
        {
          "indexed": false,
          "internalType": "uint32",
          "name": "feeRatio",
          "type": "uint32"
        },
        {
          "indexed": false,
          "internalType": "uint32",
          "name": "tickSpacing",
          "type": "uint32"
        }
      ],
      "name": "ParametersApplied",
      "type": "event"
    },
    {
      "anonymous": false,
      "inputs": [
        {
          "indexed": true,
          "internalType": "address",
          "name": "user",
          "type": "address"
        }
      ],
      "name": "PositionSubmitted",
      "type": "event"
    },
    {
      "anonymous": false,
      "inputs": [
        {
          "indexed": true,
          "internalType": "address",
          "name": "user",
          "type": "address"
        }
      ],
      "name": "VolatilitySubmitted",
      "type": "event"
    },
    {
      "inputs": [],
      "name": "appliedFeeRatio",
      "outputs": [
        {
          "internalType": "uint32",
          "name": "",
          "type": "uint32"
        }
      ],
      "stateMutability": "view",
      "type": "function"
    },
    {
      "inputs": [],
      "name": "appliedTickSpacing",
      "outputs": [
        {
          "internalType": "uint32",
          "name": "",
          "type": "uint32"
        }
      ],
      "stateMutability": "view",
      "type": "function"
    },
    {
      "inputs": [
        {
          "internalType": "uint32",
          "name": "feeRatioClear",
          "type": "uint32"
        },
        {
          "internalType": "uint32",
          "name": "tickSpacingClear",
          "type": "uint32"
        }
      ],
      "name": "applyParameters",
      "outputs": [],
      "stateMutability": "nonpayable",
      "type": "function"
    },
    {
      "inputs": [],
      "name": "confidentialProtocolId",
      "outputs": [
        {
          "internalType": "uint256",
          "name": "",
          "type": "uint256"
        }
      ],
      "stateMutability": "view",
      "type": "function"
    },
    {
      "inputs": [
        {
          "internalType": "uint256",
          "name": "index",
          "type": "uint256"
        }
      ],
      "name": "getActionAt",
      "outputs": [
        {
          "internalType": "bytes32",
          "name": "",
          "type": "bytes32"
        }
      ],
      "stateMutability": "view",
      "type": "function"
    },
    {
      "inputs": [],
      "name": "getActionsLength",
      "outputs": [
        {
          "internalType": "uint256",
          "name": "",
          "type": "uint256"
        }
      ],
      "stateMutability": "view",
      "type": "function"
    },
    {
      "inputs": [],
      "name": "getAggregates",
      "outputs": [
        {
          "internalType": "euint32",
          "name": "aggLiquidity",
          "type": "bytes32"
        },
        {
          "internalType": "euint32",
          "name": "sumLower",
          "type": "bytes32"
        },
        {
          "internalType": "euint32",
          "name": "sumUpper",
          "type": "bytes32"
        },
        {
          "internalType": "euint32",
          "name": "twoTimesNumPositions",
          "type": "bytes32"
        }
      ],
      "stateMutability": "view",
      "type": "function"
    },
    {
      "inputs": [],
      "name": "getMyPosition",
      "outputs": [
        {
          "internalType": "euint32",
          "name": "liquidity",
          "type": "bytes32"
        },
        {
          "internalType": "euint32",
          "name": "priceLower",
          "type": "bytes32"
        },
        {
          "internalType": "euint32",
          "name": "priceUpper",
          "type": "bytes32"
        },
        {
          "internalType": "bool",
          "name": "exists",
          "type": "bool"
        }
      ],
      "stateMutability": "view",
      "type": "function"
    },
    {
      "inputs": [],
      "name": "getSuggestions",
      "outputs": [
        {
          "internalType": "euint32",
          "name": "feeRatio",
          "type": "bytes32"
        },
        {
          "internalType": "euint32",
          "name": "tickSpacing",
          "type": "bytes32"
        }
      ],
      "stateMutability": "view",
      "type": "function"
    },
    {
      "inputs": [],
      "name": "owner",
      "outputs": [
        {
          "internalType": "address",
          "name": "",
          "type": "address"
        }
      ],
      "stateMutability": "view",
      "type": "function"
    },
    {
      "inputs": [],
      "name": "renounceOwnership",
      "outputs": [],
      "stateMutability": "nonpayable",
      "type": "function"
    },
    {
      "inputs": [
        {
          "internalType": "externalEuint32",
          "name": "encLiquidity",
          "type": "bytes32"
        },
        {
          "internalType": "externalEuint32",
          "name": "encPriceLower",
          "type": "bytes32"
        },
        {
          "internalType": "externalEuint32",
          "name": "encPriceUpper",
          "type": "bytes32"
        },
        {
          "internalType": "bytes",
          "name": "inputProof",
          "type": "bytes"
        }
      ],
      "name": "submitPosition",
      "outputs": [],
      "stateMutability": "nonpayable",
      "type": "function"
    },
    {
      "inputs": [
        {
          "internalType": "externalEuint32",
          "name": "encVolatility",
          "type": "bytes32"
        },
        {
          "internalType": "bytes",
          "name": "inputProof",
          "type": "bytes"
        }
      ],
      "name": "submitVolatility",
      "outputs": [],
      "stateMutability": "nonpayable",
      "type": "function"
    },
    {
      "inputs": [
        {
          "internalType": "address",
          "name": "newOwner",
          "type": "address"
        }
      ],
      "name": "transferOwnership",
      "outputs": [],
      "stateMutability": "nonpayable",
      "type": "function"
    }
  ],
  "bytecode": "0x608060405234801561000f575f5ffd5b503361009f61001c61010d565b80515f5160206117125f395f51905f5280546001600160a01b03199081166001600160a01b039384161790915560208301515f5160206116f25f395f51905f528054831691841691909117905560408301517f9e7b61f58c47dc699ac88507c4f5bb9f121c03808c5676a8078fe583e46497028054909216921691909117905550565b6001600160a01b0381166100cc57604051631e4fbdf760e01b81525f600482015260240160405180910390fd5b6100d58161027c565b506100df5f6102cb565b6007556100eb5f6102cb565b6008556007546100fa906102e3565b50600854610107906102e3565b50610446565b604080516060810182525f808252602082018190529181019190915246600103610166575060408051606080820183525f8083526020808401829052928401819052835191820184528082529181018290529182015290565b4662aa36a7036101e5575060408051606080820183525f8083526020808401829052928401528251908101835273f0ffdc93b7e186bc2f8cb3daa75d86d1930a433d81527392c920834ec8941d2c77d188936e1f7a6f49c1279181019190915273be0e383937d564d7ff0bc3b46c51f0bf8d5c311a9181019190915290565b46617a6903610263575060408051606080820183525f8083526020808401829052928401528251908101835273f0ffdc93b7e186bc2f8cb3daa75d86d1930a433d81527392c920834ec8941d2c77d188936e1f7a6f49c1279181019190915273be0e383937d564d7ff0bc3b46c51f0bf8d5c311a9181019190915290565b6040516373cac13b60e01b815260040160405180910390fd5b5f80546001600160a01b038381166001600160a01b0319831681178455604051919092169283917f8be0079c531659141344cd1fd0a4f28419497f9722a3daafe3b4186f6b6457e09190a35050565b5f6102dd63ffffffff831660046102f2565b92915050565b5f6102ee8230610389565b5090565b5f5160206116f25f395f51905f5254604051639cd07acb60e01b81525f915f5160206117125f395f51905f52916001600160a01b0390911690639cd07acb9061034190879087906004016103ff565b6020604051808303815f875af115801561035d573d5f5f3e3d5ffd5b505050506040513d601f19601f82011682018060405250810190610381919061042f565b949350505050565b5f5f5160206117125f395f51905f528054604051635ca4b5b160e11b8152600481018690526001600160a01b03858116602483015292935091169063b9496b62906044015f604051808303815f87803b1580156103e4575f5ffd5b505af11580156103f6573d5f5f3e3d5ffd5b50505050505050565b828152604081016054831061042257634e487b7160e01b5f52602160045260245ffd5b8260208301529392505050565b5f6020828403121561043f575f5ffd5b5051919050565b61129f806104535f395ff3fe608060405234801561000f575f5ffd5b50600436106100e5575f3560e01c80638da5cb5b11610088578063e78c65aa11610063578063e78c65aa14610219578063f2fde38b14610221578063fa8d2d5214610234578063fad9a3b814610247575f5ffd5b80638da5cb5b146101dc578063b777226a146101f6578063de2de62f14610206575f5ffd5b8063715018a6116100c3578063715018a61461016557806379123a2e1461016d5780638927b03014610199578063899abf4b146101af575f5ffd5b8063110effb6146100e957806314b816d514610109578063183bba411461011e575b5f5ffd5b600754600854604080519283526020830191909152015b60405180910390f35b61011c610117366004611081565b61025a565b005b335f9081526001602081815260409283902080549281015460028201546003909201548551948552928401529282019290925260ff90911615156060820152608001610100565b61011c6103d5565b600254600354600454600654604080519485526020850193909352918301526060820152608001610100565b6101a16103e8565b604051908152602001610100565b6009546101c790640100000000900463ffffffff1681565b60405163ffffffff9091168152602001610100565b5f546040516001600160a01b039091168152602001610100565b6009546101c79063ffffffff1681565b61011c6102143660046110e1565b6103f6565b600a546101a1565b61011c61022f366004611112565b6104a6565b61011c610242366004611138565b6104e8565b6101a1610255366004611194565b610890565b5f61029a8484848080601f0160208091040260200160405190810160405280939291908181526020018383808284375f920191909152506108b492505050565b90505f6102a760326108c8565b90505f6102b460016108c8565b90505f6102c184846108e0565b90506102db816102d36007548561090e565b60075461093c565b6007819055506102f9816102f16008548561090e565b60085461093c565b60085560075461030890610983565b50610314600854610983565b5061032160075433610992565b5061032e60085433610992565b5061034b6007546103465f546001600160a01b031690565b610992565b506103636008546103465f546001600160a01b031690565b506103a26040518060400160405280601181526020017f5355424d49545f564f4c4154494c4954590000000000000000000000000000008152506109a4565b60405133907f9626ce747303b1d7e2c0f5a296916aaa8a7b303af713849328d68594d1416818905f90a250505050505050565b6103dd610a08565b6103e65f610a34565b565b5f6103f1610a9b565b905090565b6103fe610a08565b6009805463ffffffff8381166401000000000267ffffffffffffffff199092169085161717905560408051808201909152601081527f4150504c595f504152414d4554455253000000000000000000000000000000006020820152610462906109a4565b6040805163ffffffff8085168252831660208201527f1da4d75c1fec3c28d93e5c02d6ba09283bfadad99f026abf28a748927899acd6910160405180910390a15050565b6104ae610a08565b6001600160a01b0381166104dc57604051631e4fbdf760e01b81525f60048201526024015b60405180910390fd5b6104e581610a34565b50565b5f6105288684848080601f0160208091040260200160405190810160405280939291908181526020018383808284375f920191909152506108b492505050565b90505f61056a8685858080601f0160208091040260200160405190810160405280939291908181526020018383808284375f920191909152506108b492505050565b90505f6105ac8686868080601f0160208091040260200160405190810160405280939291908181526020018383808284375f920191909152506108b492505050565b335f90815260016020526040902060038101549192509060ff161561060c576105da600254825f0154610acf565b60025560035460018201546105ef9190610acf565b60035560045460028201546106049190610acf565b60045561069a565b61062160055461061c60016108c8565b61090e565b600581905561062f90610983565b5061063c60055433610992565b506106546005546103465f546001600160a01b031690565b5061066560065461061c60026108c8565b600681905561067390610983565b5061068060065433610992565b506106986006546103465f546001600160a01b031690565b505b6106a66002548561090e565b6002556003546106b6908461090e565b6003556004546106c6908361090e565b6004558381556001808201849055600280830184905560038301805460ff1916909217909155546106f690610983565b50610702600354610983565b5061070e600454610983565b5061071b60025433610992565b5061072860035433610992565b5061073560045433610992565b5061074d6002546103465f546001600160a01b031690565b506107656003546103465f546001600160a01b031690565b5061077d6004546103465f546001600160a01b031690565b50805461078990610983565b506107978160010154610983565b506107a58160020154610983565b5080546107b29033610992565b506107c1816001015433610992565b506107d0816002015433610992565b5080546107e8906103465f546001600160a01b031690565b5061080281600101546103465f546001600160a01b031690565b5061081c81600201546103465f546001600160a01b031690565b5061085b6040518060400160405280600f81526020017f5355424d49545f504f534954494f4e00000000000000000000000000000000008152506109a4565b60405133907fafcde250423fd210fa9b159e3ef95a4687b968d044599e1f93fc068b4ace8f6f905f90a2505050505050505050565b5f600a82815481106108a4576108a46111ab565b905f5260205f2001549050919050565b5f6108c183836004610afd565b9392505050565b5f6108da8263ffffffff166004610c1d565b92915050565b5f826108f2576108ef5f6108c8565b92505b81610903576109005f6108c8565b91505b6108c183835f610cd2565b5f826109205761091d5f6108c8565b92505b816109315761092e5f6108c8565b91505b6108c183835f610db5565b5f8361094e5761094b5f610e52565b93505b8261095f5761095c5f6108c8565b92505b816109705761096d5f6108c8565b91505b61097b848484610e6d565b949350505050565b5f61098e8230610f16565b5090565b5f61099d8383610f16565b5090919050565b5f8133426040516020016109ba939291906111bf565b60408051601f198184030181529190528051602090910120600a80546001810182555f919091527fc65a7bb8d6351c1cf70c95a316cc6a92839c986682d98bc35f958f4883f9d2a801555050565b5f546001600160a01b031633146103e65760405163118cdaa760e01b81523360048201526024016104d3565b5f80546001600160a01b038381167fffffffffffffffffffffffff0000000000000000000000000000000000000000831681178455604051919092169283917f8be0079c531659141344cd1fd0a4f28419497f9722a3daafe3b4186f6b6457e09190a35050565b5f46600103610aaa5750600190565b4662aa36a703610abb575061271190565b46617a6903610aca57505f1990565b505f90565b5f82610ae157610ade5f6108c8565b92505b81610af257610aef5f6108c8565b91505b6108c183835f610f9f565b7f9e7b61f58c47dc699ac88507c4f5bb9f121c03808c5676a8078fe583e46497015460405163045fc19560e11b81525f917f9e7b61f58c47dc699ac88507c4f5bb9f121c03808c5676a8078fe583e4649700916001600160a01b03909116906308bf832a90610b76908890339089908990600401611216565b6020604051808303815f875af1158015610b92573d5f5f3e3d5ffd5b505050506040513d601f19601f82011682018060405250810190610bb69190611267565b8154604051630f8e573b60e21b8152600481018390523360248201529193506001600160a01b031690633e395cec906044015f604051808303815f87803b158015610bff575f5ffd5b505af1158015610c11573d5f5f3e3d5ffd5b50505050509392505050565b7f9e7b61f58c47dc699ac88507c4f5bb9f121c03808c5676a8078fe583e464970154604051639cd07acb60e01b81525f917f9e7b61f58c47dc699ac88507c4f5bb9f121c03808c5676a8078fe583e4649700916001600160a01b0390911690639cd07acb90610c92908790879060040161127e565b6020604051808303815f875af1158015610cae573d5f5f3e3d5ffd5b505050506040513d601f19601f8201168201806040525081019061097b9190611267565b5f5f8215610ce55750600160f81b610ce8565b505f5b7f9e7b61f58c47dc699ac88507c4f5bb9f121c03808c5676a8078fe583e464970154604051631391547f60e01b815260048101879052602481018690526001600160f81b0319831660448201527f9e7b61f58c47dc699ac88507c4f5bb9f121c03808c5676a8078fe583e4649700916001600160a01b031690631391547f906064015b6020604051808303815f875af1158015610d87573d5f5f3e3d5ffd5b505050506040513d601f19601f82011682018060405250810190610dab9190611267565b9695505050505050565b5f5f8215610dc85750600160f81b610dcb565b505f5b7f9e7b61f58c47dc699ac88507c4f5bb9f121c03808c5676a8078fe583e46497015460405163022f65e760e31b815260048101879052602481018690526001600160f81b0319831660448201527f9e7b61f58c47dc699ac88507c4f5bb9f121c03808c5676a8078fe583e4649700916001600160a01b03169063117b2f3890606401610d6b565b5f6108da82610e61575f610e64565b60015b60ff165f610c1d565b5f807f9e7b61f58c47dc699ac88507c4f5bb9f121c03808c5676a8078fe583e46497006001810154604051637702dcff60e01b81526004810188905260248101879052604481018690529192506001600160a01b031690637702dcff906064016020604051808303815f875af1158015610ee9573d5f5f3e3d5ffd5b505050506040513d601f19601f82011682018060405250810190610f0d9190611267565b95945050505050565b5f7f9e7b61f58c47dc699ac88507c4f5bb9f121c03808c5676a8078fe583e46497008054604051635ca4b5b160e11b8152600481018690526001600160a01b03858116602483015292935091169063b9496b62906044015f604051808303815f87803b158015610f84575f5ffd5b505af1158015610f96573d5f5f3e3d5ffd5b50505050505050565b5f5f8215610fb25750600160f81b610fb5565b505f5b7f9e7b61f58c47dc699ac88507c4f5bb9f121c03808c5676a8078fe583e4649701546040516303056db360e31b815260048101879052602481018690526001600160f81b0319831660448201527f9e7b61f58c47dc699ac88507c4f5bb9f121c03808c5676a8078fe583e4649700916001600160a01b03169063182b6d9890606401610d6b565b5f5f83601f84011261104c575f5ffd5b50813567ffffffffffffffff811115611063575f5ffd5b60208301915083602082850101111561107a575f5ffd5b9250929050565b5f5f5f60408486031215611093575f5ffd5b83359250602084013567ffffffffffffffff8111156110b0575f5ffd5b6110bc8682870161103c565b9497909650939450505050565b803563ffffffff811681146110dc575f5ffd5b919050565b5f5f604083850312156110f2575f5ffd5b6110fb836110c9565b9150611109602084016110c9565b90509250929050565b5f60208284031215611122575f5ffd5b81356001600160a01b03811681146108c1575f5ffd5b5f5f5f5f5f6080868803121561114c575f5ffd5b853594506020860135935060408601359250606086013567ffffffffffffffff811115611177575f5ffd5b6111838882890161103c565b969995985093965092949392505050565b5f602082840312156111a4575f5ffd5b5035919050565b634e487b7160e01b5f52603260045260245ffd5b5f84518060208701845e60609490941b6bffffffffffffffffffffffff191691909301908152601481019190915260340192915050565b6054811061121257634e487b7160e01b5f52602160045260245ffd5b9052565b8481526001600160a01b0384166020820152608060408201525f8351806080840152806020860160a085015e5f60a0828501015260a0601f19601f830116840101915050610f0d60608301846111f6565b5f60208284031215611277575f5ffd5b5051919050565b828152604081016108c160208301846111f656fea164736f6c634300081b000a9e7b61f58c47dc699ac88507c4f5bb9f121c03808c5676a8078fe583e46497019e7b61f58c47dc699ac88507c4f5bb9f121c03808c5676a8078fe583e4649700",
  "linkReferences": {},
  "deployedLinkReferences": {}
}